{
  "contractName": "contact",
  "abi": [
    {
      "inputs": [],
      "stateMutability": "nonpayable",
      "type": "constructor"
    },
    {
      "inputs": [
        {
          "internalType": "string",
          "name": "name",
          "type": "string"
        },
        {
          "internalType": "string",
          "name": "mobile",
          "type": "string"
        },
        {
          "internalType": "string",
          "name": "email",
          "type": "string"
        },
        {
          "internalType": "string",
          "name": "org",
          "type": "string"
        }
      ],
      "name": "insertContact",
      "outputs": [],
      "stateMutability": "nonpayable",
      "type": "function"
    },
    {
      "inputs": [],
      "name": "viewContacts",
      "outputs": [
        {
          "internalType": "string[]",
          "name": "",
          "type": "string[]"
        },
        {
          "internalType": "string[]",
          "name": "",
          "type": "string[]"
        },
        {
          "internalType": "string[]",
          "name": "",
          "type": "string[]"
        },
        {
          "internalType": "string[]",
          "name": "",
          "type": "string[]"
        }
      ],
      "stateMutability": "view",
      "type": "function",
      "constant": true
    }
  ],
  "bytecode": "0x608060405234801561001057600080fd5b50336000806101000a81548173ffffffffffffffffffffffffffffffffffffffff021916908373ffffffffffffffffffffffffffffffffffffffff160217905550610b03806100606000396000f3fe608060405234801561001057600080fd5b50600436106100365760003560e01c80636b845b021461003b5780639bc06fba14610057575b600080fd5b61005560048036038101906100509190610798565b610078565b005b61005f610233565b60405161006f94939291906109b9565b60405180910390f35b3373ffffffffffffffffffffffffffffffffffffffff1660008054906101000a900473ffffffffffffffffffffffffffffffffffffffff1673ffffffffffffffffffffffffffffffffffffffff16146100d057600080fd5b6005836040516100e09190610a56565b908152602001604051809103902060009054906101000a900460ff161561010657600080fd5b60018490806001815401808255809150506001900390600052602060002001600090919091909150908051906020019061014192919061059b565b5060028390806001815401808255809150506001900390600052602060002001600090919091909150908051906020019061017d92919061059b565b506003829080600181540180825580915050600190039060005260206000200160009091909190915090805190602001906101b992919061059b565b506004819080600181540180825580915050600190039060005260206000200160009091909190915090805190602001906101f592919061059b565b5060016005846040516102089190610a56565b908152602001604051809103902060006101000a81548160ff02191690831515021790555050505050565b606080606080600160026003600483805480602002602001604051908101604052809291908181526020016000905b8282101561030e57838290600052602060002001805461028190610a9c565b80601f01602080910402602001604051908101604052809291908181526020018280546102ad90610a9c565b80156102fa5780601f106102cf576101008083540402835291602001916102fa565b820191906000526020600020905b8154815290600101906020018083116102dd57829003601f168201915b505050505081526020019060010190610262565b50505050935082805480602002602001604051908101604052809291908181526020016000905b828210156103e157838290600052602060002001805461035490610a9c565b80601f016020809104026020016040519081016040528092919081815260200182805461038090610a9c565b80156103cd5780601f106103a2576101008083540402835291602001916103cd565b820191906000526020600020905b8154815290600101906020018083116103b057829003601f168201915b505050505081526020019060010190610335565b50505050925081805480602002602001604051908101604052809291908181526020016000905b828210156104b457838290600052602060002001805461042790610a9c565b80601f016020809104026020016040519081016040528092919081815260200182805461045390610a9c565b80156104a05780601f10610475576101008083540402835291602001916104a0565b820191906000526020600020905b81548152906001019060200180831161048357829003601f168201915b505050505081526020019060010190610408565b50505050915080805480602002602001604051908101604052809291908181526020016000905b828210156105875783829060005260206000200180546104fa90610a9c565b80601f016020809104026020016040519081016040528092919081815260200182805461052690610a9c565b80156105735780601f1061054857610100808354040283529160200191610573565b820191906000526020600020905b81548152906001019060200180831161055657829003601f168201915b5050505050815260200190600101906104db565b505050509050935093509350935090919293565b8280546105a790610a9c565b90600052602060002090601f0160209004810192826105c95760008555610610565b82601f106105e257805160ff1916838001178555610610565b82800160010185558215610610579182015b8281111561060f5782518255916020019190600101906105f4565b5b50905061061d9190610621565b5090565b5b8082111561063a576000816000905550600101610622565b5090565b6000604051905090565b600080fd5b600080fd5b600080fd5b600080fd5b6000601f19601f8301169050919050565b7f4e487b7100000000000000000000000000000000000000000000000000000000600052604160045260246000fd5b6106a58261065c565b810181811067ffffffffffffffff821117156106c4576106c361066d565b5b80604052505050565b60006106d761063e565b90506106e3828261069c565b919050565b600067ffffffffffffffff8211156107035761070261066d565b5b61070c8261065c565b9050602081019050919050565b82818337600083830152505050565b600061073b610736846106e8565b6106cd565b90508281526020810184848401111561075757610756610657565b5b610762848285610719565b509392505050565b600082601f83011261077f5761077e610652565b5b813561078f848260208601610728565b91505092915050565b600080600080608085870312156107b2576107b1610648565b5b600085013567ffffffffffffffff8111156107d0576107cf61064d565b5b6107dc8782880161076a565b945050602085013567ffffffffffffffff8111156107fd576107fc61064d565b5b6108098782880161076a565b935050604085013567ffffffffffffffff81111561082a5761082961064d565b5b6108368782880161076a565b925050606085013567ffffffffffffffff8111156108575761085661064d565b5b6108638782880161076a565b91505092959194509250565b600081519050919050565b600082825260208201905092915050565b6000819050602082019050919050565b600081519050919050565b600082825260208201905092915050565b60005b838110156108d55780820151818401526020810190506108ba565b838111156108e4576000848401525b50505050565b60006108f58261089b565b6108ff81856108a6565b935061090f8185602086016108b7565b6109188161065c565b840191505092915050565b600061092f83836108ea565b905092915050565b6000602082019050919050565b600061094f8261086f565b610959818561087a565b93508360208202850161096b8561088b565b8060005b858110156109a757848403895281516109888582610923565b945061099383610937565b925060208a0199505060018101905061096f565b50829750879550505050505092915050565b600060808201905081810360008301526109d38187610944565b905081810360208301526109e78186610944565b905081810360408301526109fb8185610944565b90508181036060830152610a0f8184610944565b905095945050505050565b600081905092915050565b6000610a308261089b565b610a3a8185610a1a565b9350610a4a8185602086016108b7565b80840191505092915050565b6000610a628284610a25565b915081905092915050565b7f4e487b7100000000000000000000000000000000000000000000000000000000600052602260045260246000fd5b60006002820490506001821680610ab457607f821691505b602082108103610ac757610ac6610a6d565b5b5091905056fea2646970667358221220afc2c098ae2054ca77a90ec10b3ad9c3ddbbff8d37e336d8dd2cadc3691e691a64736f6c634300080d0033",
  "immutableReferences": {},
  "source": "// SPDX-License-Identifier: MIT\npragma solidity >=0.4.22 <0.9.0;\n\ncontract contact {\n  address owner; //state var\n  string[] names;\n  string[] mobiles;\n  string[] emails;\n  string[] orgainizations;\n  mapping(string=>bool) _contacts;\n  constructor() public{\n    owner=msg.sender; //global var,storing owner address\n  }\n  modifier onlyOwner{  //function modifier only owner can save the contact/telegram uses blockchain\n  require((owner==msg.sender));\n  _;\n  }\n  //inserting the contact into the daap\n  function insertContact(string memory name,string memory mobile,string memory email,string memory org)public onlyOwner{\n    require((!_contacts[mobile])); //if mobile no is not in contact,like _contacts['9000067888]->false\n    names.push(name);\n    mobiles.push(mobile);\n    emails.push(email);\n    orgainizations.push(org);\n    _contacts[mobile]=true;\n  }\n  //read contact from blockchain\n  function viewContacts() public view returns(string[] memory,string[] memory,string[] memory,string[] memory){\n    return(names,mobiles,emails,orgainizations);\n  }\n}\n",
  "sourcePath": "C:\\Users\\rohit raj\\Desktop\\ContractDaap\\contracts\\contact.sol",
  "compiler": {
    "name": "solc",
    "version": "0.8.13+commit.abaa5c0e.Emscripten.clang"
  },
  "schemaVersion": "3.4.16",
  "updatedAt": "2024-09-13T05:17:21.045Z",
  "networkType": "ethereum",
  "devdoc": {
    "kind": "dev",
    "methods": {},
    "version": 1
  },
  "userdoc": {
    "kind": "user",
    "methods": {},
    "version": 1
  }
}